:100000000C942A000C943C000C943C000C943C0092
:100010000C943C000C943C000C943C000C945B0051
:100020000C943C000C943C000C943C000C943C0060
:100030000C943C000C943C000C943C000C943C0050
:100040000C943C000C943C000C943C000C943C0040
:100050000C943C0011241FBECFE5D8E0DEBFCDBF1D
:1000600010E0A0E6B0E001C01D92AC37B107E1F7A7
:100070000E9427010C944F010C940000789408957D
:10008000E1E6F0E080819181892B79F08281938192
:10009000009741F486818F5F8683878190850097E2
:1000A00021F001C0019793838283399680E0EC3779
:1000B000F80741F708951F920F920FB60F9211247F
:1000C0002F933F934F935F936F937F938F939F9360
:1000D000AF93BF93EF93FF930E944000FF91EF9186
:1000E000BF91AF919F918F917F916F915F914F9150
:1000F0003F912F910F900FBE0F901F901895FF9278
:100100000F931F93CF93DF93EC018A01A901A1E61E
:10011000B0E0E0E0F0E0FE2E9F018D919C91119700
:10012000892B29F031961996E430F105A1F783E087
:10013000F81621F481E08093600013C0F90183E098
:10014000EE0FFF1F8A95E1F7E20FF31FEF59FF4F04
:10015000D183C0837383628350874783158304836D
:1001600016828F2DDF91CF911F910F91FF900895EF
:10017000282F30E0F90143E0EE0FFF1F4A95E1F729
:10018000E20FF31FEF59FF4F80819181892B11F00E
:1001900080E004C082E08093600081E0F90193E098
:1001A000EE0FFF1F9A95E1F7E20FF31FEF59FF4F94
:1001B000118210821382128215821482168208958F
:1001C00080E00E94B80081E00E94B80082E00E94B6
:1001D000B8008EB588608EBD1DBC1CBC8FE39FE14E
:1001E0009BBD8ABD89B7806189BF8EB581608EBD98
:1001F00008951F93CF93DF93C1E6D0E010E08E8186
:10020000882369F0E881F98109958E8181508E8378
:100210008C819D81892B19F4812F0E94B8001F5F6A
:100220002996133061F7DF91CF911F9108950895BA
:10023000089582B3805882BB089582B390E48927E1
:1002400082BB089582B390E2892782BB089581B36F
:10025000806E81BB0E94E00089E191E060E070E087
:1002600041E050E022E330E00E947F008DE191E028
:1002700060E070E041E050E024EF31E00E947F0058
:1002800082E291E060E070E041E050E028EE33E08F
:100290000E947F000E943E000E94F900FDCFF8946A
:0202A000FFCF8E
:00000001FF
